:020000040000FA
:100000000C9458000C9480000C9480000C94800098
:100010000C9480000C9480000C9480000C94800060
:100020000C9480000C9480000C9480000C94800050
:100030000C9480000C9480000C9480000C94800040
:100040000C9481060C9480000C944F060C942906A5
:100050000C9480000C9480000C9480000C94800020
:100060000C94CB060C9480000000000025002800B2
:100070002B00040404040404040402020202020229
:10008000030303030303010204081020408001025C
:1000900004081020010204081020000000080002DB
:1000A0000100000304070000000000000000EA0750
:1000B00011241FBECFEFD8E0DEBFCDBF11E0A0E01E
:1000C000B1E0E8E7FFE102C005900D92AC35B10761
:1000D000D9F722E0ACE5B1E001C01D92A93FB2071B
:1000E000E1F710E0C8E5D0E004C02197FE010E94CE
:1000F000A50FC735D107C9F70E9423080C94BA0F82
:100100000C94000080912E0290912F02891B990B74
:10011000089508950895AF92BF92CF92DF92EF9223
:10012000FF920F931F93CF93DF936C017B018B01A1
:10013000040F151FEB015E01AE18BF08C017D107F1
:1001400059F06991D601ED91FC910190F081E02D7B
:10015000C6010995892B79F7C501DF91CF911F91D0
:100160000F91FF90EF90DF90CF90BF90AF900895E8
:10017000FC01538D448D252F30E0842F90E0821BAD
:10018000930B541710F0CF96089501970895FC0132
:10019000918D828D981761F0A28DAE0FBF2FB11D8A
:1001A0005D968C91928D9F5F9F73928F90E00895E2
:1001B0008FEF9FEF0895FC01918D828D981731F09C
:1001C000828DE80FF11D858D90E008958FEF9FEFF0
:1001D0000895FC01918D228D892F90E0805C9F4FC6
:1001E000821B91098F739927089580E592E00E9400
:1001F000E90021E0892B09F420E0822F089580E0B6
:1002000090E0892B29F00E94F50081110C940000E8
:100210000895FC01A48DA80FB92FB11DA35ABF4F9B
:100220002C91848D90E001968F739927848FA689F5
:10023000B7892C93A089B1898C91837080648C9349
:10024000938D848D981306C00288F389E02D8081F8
:100250008F7D80830895EF92FF920F931F93CF932A
:10026000DF93EC0181E0888F9B8D8C8D98131AC0F1
:10027000E889F989808185FF15C09FB7F894EE89D8
:10028000FF896083E889F989808183708064808335
:100290009FBF81E090E0DF91CF911F910F91FF9080
:1002A000EF900895F62E0B8D10E00F5F1F4F0F7328
:1002B0001127E02E8C8D8E110CC00FB607FCFACFE3
:1002C000E889F989808185FFF5CFCE010E94090177
:1002D000F1CFEB8DEC0FFD2FF11DE35AFF4FF082B4
:1002E0009FB7F8940B8FEA89FB8980818062CFCF1A
:1002F000CF93DF93EC01888D8823B9F0AA89BB895D
:10030000E889F9898C9185FD03C0808186FD0DC047
:100310000FB607FCF7CF8C9185FFF2CF808185FF68
:10032000EDCFCE010E940901E9CFDF91CF91089571
:1003300090E0FC01E656FF4F2491FC01EA57FF4F85
:100340003491FC01EE58FF4FE491EE23C9F02223D3
:1003500039F0233001F1A8F4213019F1223029F1CC
:10036000F0E0EE0FFF1FE859FF4FA591B4918FB752
:10037000F894EC91611126C030953E233C938FBFD9
:1003800008952730A9F02830C9F0243049F780912A
:1003900080008F7D03C0809180008F7780938000E4
:1003A000DFCF84B58F7784BDDBCF84B58F7DFBCF66
:1003B0008091B0008F778093B000D2CF8091B00051
:1003C0008F7DF9CF3E2BDACF3FB7F8948091A5010E
:1003D0009091A601A091A701B091A80126B5A89B74
:1003E00005C02F3F19F00196A11DB11D3FBFBA2FC7
:1003F000A92F982F8827BC01CD01620F711D811D87
:10040000911D42E0660F771F881F991F4A95D1F70B
:10041000089520917D01260F3327331F21323105A6
:10042000ECF420912802FC0190E080E0243069F097
:1004300082E00895A0917D012191AC01435A5E4F65
:10044000A40FB52FB11D2C930196861798F38091B8
:100450007D01680F60937D0180E0089581E008953B
:100460001092280281E0809327021092220261E01C
:1004700082E10E94980161E083E10E949801E9EB2A
:10048000F0E080818E7F808380818D7F808388E40F
:100490008093B80085E48093BC000895CF93DF93E8
:1004A00091E090935C018823B9F0C091B800D0919D
:1004B000BA008091BC008A7B8093BC0060E082E13E
:1004C0000E94980160E083E10E9498010E9430023E
:1004D000D093BA00C093B800DF91CF910895CF9226
:1004E000DF92EF92FF920F931F93CF93DF93D09100
:1004F000010281E0D13208F09CC0C09100020E944C
:10050000E4016B017C018091280281116CC082E0C2
:100510008093280281E0809327028FEF8093260248
:1005200010922502D0932402A0EEB1E0E2E0F2E0C6
:1005300080E0D8138DC01092230280912302CC0F4B
:10054000C82BC093230280912202813009F084C01D
:10055000109222020E94E4016B017C01809123022F
:100560008093BB0080912A0290912B02A0912C02D3
:10057000B0912D02892B8A2B8B2BA1F00E94E401D4
:1005800000912A0210912B0220912C0230912D0211
:100590006C197D098E099F09061717072807390767
:1005A00008F442C08091BC0083FDD8CF85EC8093D5
:1005B000BC000E94E4016B017C0180912802823022
:1005C00009F44CC0809126028F3F09F469C08091E4
:1005D0002602803209F466C080912602803309F435
:1005E00063C084E026C080912A0290912B02A091E2
:1005F0002C02B0912D02892B8A2B8B2B09F483CFEF
:100600000E94E40100912A0210912B0220912C02F9
:1006100030912D026C197D098E099F090617170765
:100620002807390708F06FCF809129020E944E02F7
:1006300085E01092DF01109201021092DE01DF913D
:10064000CF911F910F91FF90EF90DF90CF90089581
:100650009D9191938F5F6DCF85EEA9CF80912A02F6
:1006600090912B02A0912C02B0912D02892B8A2B04
:100670008B2B09F4A2CF0E94E40100912A02109171
:100680002B0220912C0230912D026C197D098E09CC
:100690009F09061717072807390708F08ECFC4CF20
:1006A00080E0C7CF82E0C5CF83E0C3CF0895E0915B
:1006B0002F0280912E02E81730F4F0E0E05DFD4F4C
:1006C000808190E008958FEF9FEF089590912F0221
:1006D00080912E022FEF3FEF981748F4E92FF0E0BA
:1006E000E05DFD4F208130E09F5F90932F02C901B4
:1006F0000895CF92DF92EF92FF920F931F93CF93C3
:10070000DF937C01CB018A012091DE01222389F055
:10071000EB016B01C40ED51ECC15DD0569F06991A6
:10072000D701ED91FC910190F081E02DC701099571
:10073000F3CF642F0E940902C801DF91CF911F916E
:100740000F91FF90EF90DF90CF900895CF93DF93BC
:100750001F92CDB7DEB769832091DE012223F9F025
:1007600020910102203258F021E030E0FC01338377
:10077000228390E080E00F90DF91CF9108958091E7
:10078000DF01E82FF0E0E052FE4F998190838F5F08
:100790008093DF018093010281E090E0ECCF61E083
:1007A000CE0101960E940902F7CF682F8DEE92E0EC
:1007B0000C94A60390E080E00895CF93C62F91E0BB
:1007C0009093DE0196E7909300021092DF01109261
:1007D0000102682F8DEE92E00E94A6036C2F8DEE31
:1007E00092E00E94A603CF910C946F02CF92DF9209
:1007F000EF92FF920F931F93CF93DF93D82F0E9416
:10080000E4016B017C0180912802811165C0CD2F2C
:1008100081E080932802809327029FEF9093260225
:10082000109225029D0F90932402809323028091C1
:1008300023028C6E8093230280912202813009F082
:100840007FC0109222020E94E4016B017C01809122
:1008500023028093BB0080912A0290912B02A091E9
:100860002C02B0912D02892B8A2B8B2BA1F00E9498
:10087000E40100912A0210912B0220912C02309168
:100880002D026C197D098E099F0906171707280785
:10089000390708F442C08091BC0083FDD8CF85ECB5
:1008A0008093BC000E94E4016B017C0180912802CE
:1008B000813009F447C0809125028D1710F4C09152
:1008C0002502A2E0B2E0E0E3F2E080E08C1751F113
:1008D0009D9191938F5FFACF80912A0290912B0284
:1008E000A0912C02B0912D02892B8A2B8B2B09F41D
:1008F0008ACF0E94E40100912A0210912B022091DC
:100900002C0230912D026C197D098E099F09061762
:1009100017072807390708F076CF809129020E942F
:100920004E02C0E010922F02C0932E028C2FDF9156
:10093000CF911F910F91FF90EF90DF90CF9008958E
:1009400085EEAECF80912A0290912B02A0912C02CD
:10095000B0912D02892B8A2B8B2B09F4A7CF0E94F3
:10096000E40100912A0210912B0220912C02309177
:100970002D026C197D098E099F0906171707280794
:10098000390708F093CFC9CFFC0101900020E9F7A7
:100990003197AF01481B590BBC0180E592E00C94E4
:1009A0008B008F929F92AF92BF920F931F93CF9322
:1009B000DF93CDB7DEB7A1970FB6F894DEBF0FBEB9
:1009C000CDBF19A2423008F44AE08E010F5D1F4FDF
:1009D000842E912CB12CA12CA50194010E94700FA2
:1009E000E62FB901CA01EA30F4F4E05DD801EE93D4
:1009F0008D01232B242B252B79F790E080E0109795
:100A000019F0CD010E94C404A1960FB6F894DEBF80
:100A10000FBECDBFDF91CF911F910F91BF90AF90CF
:100A20009F908F900895E95CE1CF4F925F926F9213
:100A30007F928F929F92AF92BF92CF92DF92EF926E
:100A4000FF920F931F93CF936B017C01742EAC0127
:100A50009B010E945B0F882399F084E291E0CF9183
:100A60001F910F91FF90EF90DF90CF90BF90AF90CC
:100A70009F908F907F906F905F904F900C94C404E4
:100A800046015701E894B7F82FEF3FEF4FE75FE7D4
:100A9000C501B4010E945B0F81110DC02FEF3FEF24
:100AA0004FE75FE7C501B4010E94910D18161CF4D1
:100AB00088E291E0D4CF2FEF3FEF4FE75FE4C7012B
:100AC000B6010E94E90E18161CF48CE291E0C7CF23
:100AD0002FEF3FEF4FE75FECC701B6010E94910D8A
:100AE00087FDF3CF20E030E0A901C701B6010E94E5
:100AF000910D10E000E087FF0AC06DE280E592E012
:100B00000E942B018C01F7FAF094F7F8F094C0E002
:100B100060E070E080E09FE37C1641F020E030E090
:100B200040E251E40E94960DCF5FF6CFA7019601F7
:100B30000E94250D2B013C010E94080E4B015C0117
:100B40004AE00E94D1047C01E00EF11ECC23C1F1E9
:100B5000C501B4010E94370E9B01AC01C301B20173
:100B60000E94240D4B015C016EE280E592E00E9440
:100B70002B01E80EF91EC15018F120E030E040E2F0
:100B800051E4C501B4010E94EE0E2B013C010E940C
:100B9000080E4B01B12CA12C4AE0C501B4010E9402
:100BA000D104E80EF91EC501B4010E94370E9B0165
:100BB000AC01C301B2010E94240D4B015C01DBCFEB
:100BC000C701CF911F910F91FF90EF90DF90CF90D1
:100BD000BF90AF909F908F907F906F905F904F905D
:100BE000089585ED8093BC0080912A0290912B029C
:100BF000A0912C02B0912D020796A11DB11D23E0FA
:100C0000B695A795979587952A95D1F72091BC0021
:100C100024FD03C010922802089540912A025091A9
:100C20002B0260912C0270912D02452B462B472BF5
:100C300069F30097A105B10541F025E32A95F1F785
:100C400000000197A109B109E1CF809129020C941C
:100C50004E021F920F920FB60F9211242F933F93C3
:100C60004F935F936F937F938F939F93AF93BF93B4
:100C7000EF93FF9380E592E00E940901FF91EF91CD
:100C8000BF91AF919F918F917F916F915F914F91A4
:100C90003F912F910F900FBE0F901F9018951F92AC
:100CA0000F920FB60F9211242F938F939F93EF9370
:100CB000FF93E0916002F09161028081E091660211
:100CC000F091670282FD1BC09081809169028F5F65
:100CD0008F7320916A02821741F0E0916902F0E07F
:100CE000E05BFD4F958F80936902FF91EF919F919B
:100CF0008F912F910F900FBE0F901F9018958081AC
:100D0000F4CF1F920F920FB60F9211242F933F939F
:100D10008F939F93AF93BF938091A1019091A20174
:100D2000A091A301B091A4013091A00123E0230F71
:100D30002D3758F50196A11DB11D2093A001809378
:100D4000A1019093A201A093A301B093A40180916B
:100D5000A5019091A601A091A701B091A8010196CB
:100D6000A11DB11D8093A5019093A601A093A70199
:100D7000B093A801BF91AF919F918F913F912F9117
:100D80000F900FBE0F901F90189526E8230F029624
:100D9000A11DB11DD2CF1F920F920FB60F92112439
:100DA0002F933F934F935F936F937F938F939F9373
:100DB000AF93BF93EF93FF938091B900887F803604
:100DC00009F44AC0F0F5883209F4A7C018F580315B
:100DD00009F49BC0B8F4882309F4F9C0883009F4F9
:100DE00094C0FF91EF91BF91AF919F918F917F91AF
:100DF0006F915F914F913F912F910F900FBE0F9088
:100E00001F901895883109F488C0803251F780937B
:100E1000260214C0803409F49DC040F48033B9F335
:100E20008833F9F68093260285ECB0C0803509F44A
:100E300085C0883509F496C0883499F60E94F1057A
:100E4000D0CF883909F48CC038F5883729F050F4B0
:100E5000883611F0803729F683E0809328021092BB
:100E60009F0157C0883809F47BC0803919F0803859
:100E700009F0B7CF80919F01803208F071C0E091F6
:100E80009F0181E08E0F80939F018091BB00F0E075
:100E9000E158FE4F80833DC0803B39F0E0F4803A5A
:100EA00009F479C0883A09F09CCF84E08093280245
:100EB00010927E0110927D01E091AB01F091AC01A6
:100EC000099580917D0181110FC081E080937D01A2
:100ED00010925D0109C0803C09F4A6CF883C09F45A
:100EE000A3CF883B09F07DCFE0917E0181E08E0F9A
:100EF00080937E01F0E0E35AFE4F80818093BB0037
:100F000090917E0180917D0129C080912302809380
:100F1000BB0085EC8093BC0064CF9091250280914A
:100F20002402981758F5E091250281E08E0F8093F6
:100F30002502F0E0EE5FFD4F8081E9CFE0912502D0
:100F400081E08E0F809325028091BB00F0E0EE5F80
:100F5000FD4F808390912502809124029817C8F25A
:100F600085E8D8CFE091250281E08E0F809325029D
:100F70008091BB00F0E0EE5FFD4F808380912702FF
:100F800081115CCF81E08093220284EA8093BC00CF
:100F90001092280226CF85EC8093BC001092280284
:100FA00080919F01803230F4E0919F01F0E0E158A0
:100FB000FE4F108260919F0170E0E091A901F091D5
:100FC000AA018FE791E0099510929F010ACF109234
:100FD000260234CFE0E5F2E01382128288EE93E03D
:100FE000A0E0B0E084839583A683B78324E031E05A
:100FF0003183208325EC30E03587248724EC30E0F2
:101000003787268720EC30E0318B208B21EC30E0D5
:10101000338B228B22EC30E0358B248B26EC30E0B6
:10102000378B268B118E128E138E148EEDEEF2E01E
:101030001382128284839583A683B78386E191E02D
:10104000918380830895CF93DF93CDB7DEB7E09788
:101050000FB6F894DEBF0FBECDBF789484B5826022
:1010600084BD84B5816084BD85B5826085BD85B54C
:10107000816085BD80916E00816080936E001092CA
:101080008100809181008260809381008091810045
:1010900081608093810080918000816080938000D6
:1010A0008091B10084608093B1008091B000816034
:1010B0008093B00080917A00846080937A00809160
:1010C0007A00826080937A0080917A0081608093B8
:1010D0007A0080917A00806880937A001092C10033
:1010E000E0916002F091610282E08083E0915C0215
:1010F000F0915D021082E0915E02F0915F028FEC50
:10110000808310926802E0916402F091650286E0AB
:101110008083E0916202F09163028081806180832C
:10112000E0916202F0916302808188608083E091A7
:101130006202F0916302808180688083E0916202A4
:10114000F091630280818F7D808310922F02109234
:101150002E021092DF01109201020E94300289E8F3
:1011600090E09093AC018093AB018AE890E090937B
:10117000AA018093A90161E082EF0E94DD0367E28A
:1011800084EF0E94DD0360EA85EF0E94DD0381E0C9
:101190008093DE0186E7809300021092DF011092B7
:1011A000010288E890E00E94D5030E946F0288E166
:1011B00090E00E94F60310E0E12EF12C1F5F909169
:1011C0002E0280912F02981761F08DEE92E00E941E
:1011D0006603E1E0F0E0EC0FFD1FEE0DFF1D8083E4
:1011E000EBCF01E00093DE011092DF0110920102CB
:1011F00081EA90E00E94D5030E946F0281E090E0B6
:101200000E94F6038DEE92E00E946603E1E0F0E0BA
:10121000EC0FFD1FEE0DFF1D80830093DE01109289
:10122000DF011092010281EE90E00E94D5030E943E
:101230006F0287E090E00E94F60390912E02809169
:101240002F02981769F08DEE92E00E946603E1E0AC
:10125000F0E0EC0FFD1FE10FF11D80831F5FEDCF6C
:1012600089819A819093B2018093B1018B819C8195
:101270009093B0018093AF018D819E819093AE01D8
:101280008093AD018F8198859093BA018093B901C5
:1012900089859A859093BC018093BB018B859C8541
:1012A0009093BE018093BD018D859E859093C00172
:1012B0008093BF018F8598899093C2018093C1016B
:1012C00089899A899093C4018093C3018B899C89F1
:1012D0009093B4018093B3018D899E899093B60158
:1012E0008093B5018F89988D9093B8018093B70151
:1012F000898D8093C5018A8D9B8D9093C7018093C2
:10130000C6018C8D8093C8012E8D8D8D30E1839F19
:10131000C0011124322F3F70832B9093CD01809315
:10132000CC018F8D40E1849FC001112422952F7044
:10133000822B9093CB018093CA0188A18093C9012D
:1013400001E016E7F0E02F2EF0E03F2E0093DE01E3
:10135000109300021092DF011092010287EF90E0DB
:101360000E94D5030E946F0288E090E00E94F6037D
:10137000CE0101967C0190912E0280912F02981748
:1013800079F08DEE92E00E946603092E000CAA0B04
:10139000BB0BF70181939193A193B1937F01EBCFA5
:1013A00029813A814B815C81BCE0220F331F441FAD
:1013B000551FBA95D1F74D805E806F80788484E0A8
:1013C000440C551C661C771C8A95D1F724293529B5
:1013D0004629572949845A846B847C8494E0769406
:1013E0006794579447949A95D1F769017A01C42874
:1013F000D528E628F728CDA2DEA2EFA2F8A6C09253
:10140000D601D092D701E092D801F092D9012D8572
:101410003E854F8558896CE0220F331F441F551FAE
:101420006A95D1F789899A89AB89BC8974E0880F5C
:10143000991FAA1FBB1F7A95D1F7282B392B4A2B4E
:101440005B2B8D899E89AF89B88DE4E0B695A79511
:1014500097958795EA95D1F7282B392B4A2B5B2B4B
:101460002093DA013093DB014093DC015093DD01DE
:10147000898C9A8CAB8CBC8CBA2CA92C982C882487
:101480008D8D9E8DAF8DB8A175016401C82AD92AB2
:10149000EA2AFB2AC9A6DAA6EBA6FCA6C092D201CC
:1014A000D092D301E092D401F092D5018091B101A4
:1014B0009091B201B0E0A0E069017A0164E0F59496
:1014C000E794D794C7946A95D1F7C81AD90AEA0A5B
:1014D000FB0A73E055954795379527957A95D1F78F
:1014E000880F991FAA1FBB1F281B390B4A0B5B0BC8
:1014F000A091AF01B091B0010E949D0F2B013C0162
:10150000FBE07594679457944794FA95D1F7A70137
:101510009601C701B6010E94600F9B01AC01ACE0CF
:101520005595479537952795AA95D1F7A091AD0187
:10153000B091AE010E949D0FBEE09595879577957D
:101540006795BA95D1F773016201C60ED71EE81EE2
:10155000F91EC9A2DAA2EBA2FCA2C092CE01D092DF
:10156000CF01E092D001F092D101A5E0B0E0A70157
:1015700096010E94920F60587F4F8F4F9F4FC72E4A
:10158000D82EE92EFF24E7FCFA94CDA6DEA6EFA61E
:10159000F8AA49015A01B594A794979487942AEF21
:1015A000921AA108B108C501B401A2E095958795EA
:1015B00077956795AA95D1F79B01AC010E94600FC2
:1015C0002B013C01A091BD01B091BE01AC019B017A
:1015D0008DE055954795379527958A95D1F70E94C7
:1015E0009D0F6B017C0193E0F594E794D794C79429
:1015F0009A95D1F7A091BB01B091BC01A5019401CE
:101600000E949D0F9B01AC015595479537952795F5
:101610002C0D3D1D4E1D5F1D72E15595479537956B
:1016200027957A95D1F730584F4F5F4FA091B90168
:10163000B091BA010E94920F6B017C01EFE0F5942A
:10164000E794D794C794EA95D1F7C114D104E10483
:10165000F10409F4F5C1A30192016BE0559547959A
:10166000379527956A95D1F7A091C301B091C40130
:101670000E949D0F2B013C01A091C101B091C201BC
:10168000A50194010E949D0FDC01CB01880F991FD9
:10169000AA1FBB1F480E591E6A1E7B1EE2E07594EE
:1016A000679457944794EA95D1F72091BF01309100
:1016B000C001032E000C440B550BA9013327222730
:1016C000240D351D461D571DACE0559547953795A2
:1016D0002795AA95D1F78DA19EA1AFA1B8A5280FF6
:1016E000391F4A1F5B1FABECB3EF0E94A00F805B5A
:1016F0009C4397FD9AC1660F771F881F991FA7010A
:1017000096010E94700F29013A01C301B201F3E072
:101710009695879577956795FA95D1F79B01AC01DA
:101720000E94600F9B01AC01ADE05695479537953F
:101730002795AA95D1F7A091B701B091B8010E9461
:101740009D0F4B015C01BCE0B594A79497948794DE
:10175000BA95D1F7A301920182E056954795379546
:1017600027958A95D1F7A091B501B091B6010E9455
:101770009D0F6B017C019DE0F594E794D794C7948D
:101780009A95D1F7C80CD91CEA1CFB1C8090B301B8
:101790009090B401092C000CAA08BB08C80CD91CF5
:1017A000EA1CFB1C24E0F594E794D794C7942A958F
:1017B000D1F7C40CD51CE61CF71C49A05AA06BA09D
:1017C0007CA09CE2591A91E0690A710889A49AA444
:1017D000ABA4BCA45EE0880C991CAA1CBB1C5A9547
:1017E000D1F78091CC019091CD01092E000CAA0B6C
:1017F000BB0B64E1880F991FAA1FBB1F6A95D1F725
:10180000881A990AAA0ABB0AA091CA01B091CB0111
:10181000A30192010E949D0F861A970AA80AB90A8D
:10182000A0E49A0EA11CB11C7FE0B594A7949794F4
:1018300087947A95D1F7A091C8010A2E000CBB0BB2
:101840000E949D0FEBE09595879577956795EA95B2
:10185000D1F79B01AC0130584F4F5F4F29A33AA3FA
:101860004BA35CA3A091C9010A2E000CBB0BA301E2
:1018700092010E949D0FFAE095958795779567955F
:10188000FA95D1F729A13AA14BA15CA10E94600F62
:101890009B01AC01AAE05595479537952795AA95E8
:1018A000D1F7405E5F4FA091C601B091C7010E9481
:1018B0009D0F705E8F4F9F4FBEE0959587957795F2
:1018C0006795BA95D1F7A50194010E94600F4B016D
:1018D0005C012FE095958795779567952A95D1F7C7
:1018E0009B01AC010E94600F9B01AC0167E0559524
:1018F0004795379527956A95D1F7A091C5010A2E8E
:10190000000CBB0B0E949D0FE4E0959587957795A1
:101910006795EA95D1F7861A970AA80AB90AB7FE19
:1019200003C0812C912C540180E391E00E94C404F7
:101930006DA57EA58FA598A90E94390E20E030E004
:1019400048EC52E40E94960D42E00E94150588E39F
:1019500091E00E94C404C701B6010E94370E20E046
:1019600030E048EC52E40E94960D42E00E941505DA
:1019700088E491E00E94C40431E083169104A1043C
:1019800039E1B3062CF0812C912CA12C49E1B42E25
:10199000C501B4012CE095958795779567952A95B3
:1019A000D1F70E94370E20E030E040E85AE30E9471
:1019B000EE0E42E00E94150585E591E00E94C40408
:1019C00088E591E00E94C4040E94E4014B015C019F
:1019D00038EEC32E33E0D32EE12CF12C0E94E4012B
:1019E000681979098A099B09683E73408105910548
:1019F000A8F341E0C41AD108E108F10858EE850EB9
:101A000053E0951EA11CB11CC114D104E104F104E2
:101A100029F72114310409F499CC0E94F500882398
:101A200009F494CC0E94000091CCA70196010E9479
:101A3000700F29013A01440C551C661C771C65CEB9
:101A4000C12CD12C7601B9CE5058BB27AA270E94B1
:101A50003C0D0C94AF0E0E94A10E38F00E94A80E0F
:101A600020F039F49F3F19F426F40C949E0E0EF4E6
:101A7000E095E7FB0C94980EE92F0E94C00E58F3F6
:101A8000BA17620773078407950720F079F4A6F563
:101A90000C94E20E0EF4E0950B2EBA2FA02D0B0144
:101AA000B90190010C01CA01A0011124FF27591BA3
:101AB00099F0593F50F4503E68F11A16F040A22FA9
:101AC000232F342F4427585FF3CF4695379527951A
:101AD000A795F0405395C9F77EF41F16BA0B620B19
:101AE000730B840BBAF09150A1F0FF0FBB1F661F60
:101AF000771F881FC2F70EC0BA0F621F731F841FA3
:101B000048F4879577956795B795F7959E3F08F0C8
:101B1000B0CF9395880F08F09927EE0F979587958A
:101B200008950E94740E08F481E008950E94AA0DA1
:101B30000C94AF0E0E94A80E58F00E94A10E40F027
:101B400029F45F3F29F00C94980E51110C94E30E88
:101B50000C949E0E0E94C00E68F39923B1F3552396
:101B600091F3951B550BBB27AA27621773078407B0
:101B700038F09F5F5F4F220F331F441FAA1FA9F346
:101B800035D00E2E3AF0E0E832D091505040E69534
:101B9000001CCAF72BD0FE2F29D0660F771F881F95
:101BA000BB1F261737074807AB07B0E809F0BB0B88
:101BB000802DBF01FF2793585F4F3AF09E3F51059C
:101BC00078F00C94980E0C94E30E5F3FE4F3983E8B
:101BD000D4F3869577956795B795F7959F5FC9F785
:101BE000880F911D9695879597F90895E1E0660F06
:101BF000771F881FBB1F621773078407BA0720F07F
:101C0000621B730B840BBA0BEE1F88F7E0950895E7
:101C10000E94C80E88F09F5798F0B92F9927B751A6
:101C2000B0F0E1F0660F771F881F991F1AF0BA9580
:101C3000C9F714C0B13091F00E94E20EB1E00895EE
:101C40000C94E20E672F782F8827B85F39F0B93FE0
:101C5000CCF3869577956795B395D9F73EF4909533
:101C60008095709561957F4F8F4F9F4F0895E894B1
:101C700009C097FB3EF490958095709561957F4FD4
:101C80008F4F9F4F9923A9F0F92F96E9BB27939582
:101C9000F695879577956795B795F111F8CFFAF492
:101CA000BB0F11F460FF1BC06F5F7F4F8F4F9F4FC3
:101CB00016C0882311F096E911C0772321F09EE821
:101CC000872F762F05C0662371F096E8862F70E087
:101CD00060E02AF09A95660F771F881FDAF7880F61
:101CE0009695879597F90895990F0008550FAA0BB7
:101CF000E0E8FEEF16161706E807F907C0F012161F
:101D00001306E407F50798F0621B730B840B950B21
:101D100039F40A2661F0232B242B252B21F4089576
:101D20000A2609F4A140A6958FEF811D811D089513
:101D300097F99F6780E870E060E008959FEF80EC7E
:101D4000089500240A941616170618060906089521
:101D500000240A9412161306140605060895092E87
:101D60000394000C11F4882352F0BB0F40F4BF2BF6
:101D700011F460FF04C06F5F7F4F8F4F9F4F089536
:101D800057FD9058440F551F59F05F3F71F047952C
:101D9000880F97FB991F61F09F3F79F08795089511
:101DA000121613061406551FF2CF4695F1DF08C030
:101DB000161617061806991FF1CF8695710561054D
:101DC00008940895E894BB2766277727CB0197F9F5
:101DD00008950E94740E08F48FEF08950E94010F79
:101DE0000C94AF0E0E94A10E38F00E94A80E20F0B5
:101DF000952311F00C94980E0C949E0E11240C94C3
:101E0000E30E0E94C00E70F3959FC1F3950F50E052
:101E1000551F629FF001729FBB27F00DB11D639F9C
:101E2000AA27F00DB11DAA1F649F6627B00DA11D42
:101E3000661F829F2227B00DA11D621F739FB00DE8
:101E4000A11D621F839FA00D611D221F749F332758
:101E5000A00D611D231F849F600D211D822F762FF1
:101E60006A2F11249F5750409AF0F1F088234AF0CE
:101E7000EE0FFF1FBB1F661F771F881F915050403A
:101E8000A9F79E3F510580F00C94980E0C94E30E38
:101E90005F3FE4F3983ED4F3869577956795B795C1
:101EA000F795E7959F5FC1F7FE2B880F911D9695DB
:101EB000879597F908950E94740E880B990B0895E1
:101EC000DB018F939F930E94920FBF91AF91A29FCE
:101ED000800D911DA39F900DB29F900D1124089528
:101EE000A1E21A2EAA1BBB1BFD010DC0AA1FBB1F1E
:101EF000EE1FFF1FA217B307E407F50720F0A21B90
:101F0000B30BE40BF50B661F771F881F991F1A94FC
:101F100069F760957095809590959B01AC01BD0126
:101F2000CF0108950E94AB0FA59F900DB49F900D17
:101F3000A49F800D911D11240895B7FF0C94920F5A
:101F40000E94920F821B930B0895EE0FFF1F0590C6
:101F5000F491E02D0994A29FB001B39FC001A39F0B
:101F6000700D811D1124911DB29F700D811D1124D2
:101F7000911D0895F894FFCF000000002B018B0005
:101F8000B8007801E900C700DB0000000000A603EC
:101F90007903DA0356038200660357036E616E000D
:101FA000696E66006F76660054454D50203A2000F9
:101FB000204465674320205052455353203A200067
:101FC00020685061202048554D203A2000202500EF
:041FD0000D0A0000F6
:107E0000112484B714BE81FFF0D085E080938100F7
:107E100082E08093C00088E18093C10086E0809377
:107E2000C20080E18093C4008EE0C9D0259A86E02C
:107E300020E33CEF91E0309385002093840096BBD3
:107E4000B09BFECF1D9AA8958150A9F7CC24DD24C4
:107E500088248394B5E0AB2EA1E19A2EF3E0BF2EE7
:107E6000A2D0813461F49FD0082FAFD0023811F036
:107E7000013811F484E001C083E08DD089C08234E0
:107E800011F484E103C0853419F485E0A6D080C0E4
:107E9000853579F488D0E82EFF2485D0082F10E0AE
:107EA000102F00270E291F29000F111F8ED06801E7
:107EB0006FC0863521F484E090D080E0DECF843638
:107EC00009F040C070D06FD0082F6DD080E0C81688
:107ED00080E7D80618F4F601B7BEE895C0E0D1E017
:107EE00062D089930C17E1F7F0E0CF16F0E7DF06D8
:107EF00018F0F601B7BEE89568D007B600FCFDCFD4
:107F0000A601A0E0B1E02C9130E011968C91119780
:107F100090E0982F8827822B932B1296FA010C0160
:107F200087BEE89511244E5F5F4FF1E0A038BF0790
:107F300051F7F601A7BEE89507B600FCFDCF97BE46
:107F4000E89526C08437B1F42ED02DD0F82E2BD052
:107F50003CD0F601EF2C8F010F5F1F4F84911BD097
:107F6000EA94F801C1F70894C11CD11CFA94CF0C13
:107F7000D11C0EC0853739F428D08EE10CD085E9AC
:107F80000AD08FE07ACF813511F488E018D01DD067
:107F900080E101D065CF982F8091C00085FFFCCF94
:107FA0009093C60008958091C00087FFFCCF809118
:107FB000C00084FD01C0A8958091C6000895E0E648
:107FC000F0E098E1908380830895EDDF803219F02E
:107FD00088E0F5DFFFCF84E1DECF1F93182FE3DFCA
:107FE0001150E9F7F2DF1F91089580E0E8DFEE27F6
:047FF000FF270994CA
:027FFE00040479
:00000001FF
